{
  "contractName": "Kittycontract",
  "abi": [
    {
      "anonymous": false,
      "inputs": [
        {
          "indexed": true,
          "internalType": "address",
          "name": "owner",
          "type": "address"
        },
        {
          "indexed": true,
          "internalType": "address",
          "name": "approved",
          "type": "address"
        },
        {
          "indexed": true,
          "internalType": "uint256",
          "name": "tokenId",
          "type": "uint256"
        }
      ],
      "name": "Approval",
      "type": "event"
    },
    {
      "anonymous": false,
      "inputs": [
        {
          "indexed": true,
          "internalType": "address",
          "name": "owner",
          "type": "address"
        },
        {
          "indexed": true,
          "internalType": "address",
          "name": "operator",
          "type": "address"
        },
        {
          "indexed": false,
          "internalType": "bool",
          "name": "approved",
          "type": "bool"
        }
      ],
      "name": "ApprovalForAll",
      "type": "event"
    },
    {
      "anonymous": false,
      "inputs": [
        {
          "indexed": false,
          "internalType": "address",
          "name": "owner",
          "type": "address"
        },
        {
          "indexed": false,
          "internalType": "uint256",
          "name": "tokenId",
          "type": "uint256"
        },
        {
          "indexed": false,
          "internalType": "uint256",
          "name": "mumId",
          "type": "uint256"
        },
        {
          "indexed": false,
          "internalType": "uint256",
          "name": "dadId",
          "type": "uint256"
        },
        {
          "indexed": false,
          "internalType": "uint256",
          "name": "genes",
          "type": "uint256"
        },
        {
          "indexed": false,
          "internalType": "uint256",
          "name": "generation",
          "type": "uint256"
        }
      ],
      "name": "Birth",
      "type": "event"
    },
    {
      "anonymous": false,
      "inputs": [
        {
          "indexed": true,
          "internalType": "address",
          "name": "from",
          "type": "address"
        },
        {
          "indexed": true,
          "internalType": "address",
          "name": "to",
          "type": "address"
        },
        {
          "indexed": true,
          "internalType": "uint256",
          "name": "tokenId",
          "type": "uint256"
        }
      ],
      "name": "Transfer",
      "type": "event"
    },
    {
      "inputs": [],
      "name": "CREATION_LIMIT_GEN0",
      "outputs": [
        {
          "internalType": "uint256",
          "name": "",
          "type": "uint256"
        }
      ],
      "stateMutability": "view",
      "type": "function",
      "constant": true
    },
    {
      "inputs": [],
      "name": "gen0Counter",
      "outputs": [
        {
          "internalType": "uint256",
          "name": "",
          "type": "uint256"
        }
      ],
      "stateMutability": "view",
      "type": "function",
      "constant": true
    },
    {
      "inputs": [],
      "name": "name",
      "outputs": [
        {
          "internalType": "string",
          "name": "",
          "type": "string"
        }
      ],
      "stateMutability": "view",
      "type": "function",
      "constant": true
    },
    {
      "inputs": [
        {
          "internalType": "uint256",
          "name": "",
          "type": "uint256"
        }
      ],
      "name": "ownerOfToken",
      "outputs": [
        {
          "internalType": "address",
          "name": "",
          "type": "address"
        }
      ],
      "stateMutability": "view",
      "type": "function",
      "constant": true
    },
    {
      "inputs": [],
      "name": "symbol",
      "outputs": [
        {
          "internalType": "string",
          "name": "",
          "type": "string"
        }
      ],
      "stateMutability": "view",
      "type": "function",
      "constant": true
    },
    {
      "inputs": [
        {
          "internalType": "uint256",
          "name": "",
          "type": "uint256"
        }
      ],
      "name": "tokenIdToApproved",
      "outputs": [
        {
          "internalType": "address",
          "name": "",
          "type": "address"
        }
      ],
      "stateMutability": "view",
      "type": "function",
      "constant": true
    },
    {
      "inputs": [
        {
          "internalType": "uint256",
          "name": "_dadId",
          "type": "uint256"
        },
        {
          "internalType": "uint256",
          "name": "_mumId",
          "type": "uint256"
        }
      ],
      "name": "breed",
      "outputs": [
        {
          "internalType": "uint256",
          "name": "tokenId",
          "type": "uint256"
        }
      ],
      "stateMutability": "nonpayable",
      "type": "function"
    },
    {
      "inputs": [
        {
          "internalType": "bytes4",
          "name": "_interfaceId",
          "type": "bytes4"
        }
      ],
      "name": "supportInterface",
      "outputs": [
        {
          "internalType": "bool",
          "name": "",
          "type": "bool"
        }
      ],
      "stateMutability": "pure",
      "type": "function",
      "constant": true
    },
    {
      "inputs": [
        {
          "internalType": "address",
          "name": "_approved",
          "type": "address"
        },
        {
          "internalType": "uint256",
          "name": "_tokenId",
          "type": "uint256"
        }
      ],
      "name": "approve",
      "outputs": [],
      "stateMutability": "nonpayable",
      "type": "function"
    },
    {
      "inputs": [
        {
          "internalType": "address",
          "name": "_operator",
          "type": "address"
        },
        {
          "internalType": "bool",
          "name": "_approved",
          "type": "bool"
        }
      ],
      "name": "setApprovalForAll",
      "outputs": [],
      "stateMutability": "nonpayable",
      "type": "function"
    },
    {
      "inputs": [
        {
          "internalType": "uint256",
          "name": "_tokenId",
          "type": "uint256"
        }
      ],
      "name": "getApproved",
      "outputs": [
        {
          "internalType": "address",
          "name": "",
          "type": "address"
        }
      ],
      "stateMutability": "view",
      "type": "function",
      "constant": true
    },
    {
      "inputs": [
        {
          "internalType": "address",
          "name": "_owner",
          "type": "address"
        },
        {
          "internalType": "address",
          "name": "_operator",
          "type": "address"
        }
      ],
      "name": "isApprovedForAll",
      "outputs": [
        {
          "internalType": "bool",
          "name": "",
          "type": "bool"
        }
      ],
      "stateMutability": "view",
      "type": "function",
      "constant": true
    },
    {
      "inputs": [
        {
          "internalType": "address",
          "name": "_from",
          "type": "address"
        },
        {
          "internalType": "address",
          "name": "_to",
          "type": "address"
        },
        {
          "internalType": "uint256",
          "name": "_tokenId",
          "type": "uint256"
        }
      ],
      "name": "safeTransferFrom",
      "outputs": [],
      "stateMutability": "nonpayable",
      "type": "function"
    },
    {
      "inputs": [
        {
          "internalType": "address",
          "name": "_from",
          "type": "address"
        },
        {
          "internalType": "address",
          "name": "_to",
          "type": "address"
        },
        {
          "internalType": "uint256",
          "name": "_tokenId",
          "type": "uint256"
        },
        {
          "internalType": "bytes",
          "name": "data",
          "type": "bytes"
        }
      ],
      "name": "safeTransferFrom",
      "outputs": [],
      "stateMutability": "nonpayable",
      "type": "function"
    },
    {
      "inputs": [
        {
          "internalType": "address",
          "name": "_from",
          "type": "address"
        },
        {
          "internalType": "address",
          "name": "_to",
          "type": "address"
        },
        {
          "internalType": "uint256",
          "name": "_tokenId",
          "type": "uint256"
        }
      ],
      "name": "transferFrom",
      "outputs": [],
      "stateMutability": "nonpayable",
      "type": "function"
    },
    {
      "inputs": [
        {
          "internalType": "uint256",
          "name": "_tokenId",
          "type": "uint256"
        }
      ],
      "name": "getKitty",
      "outputs": [
        {
          "internalType": "uint256",
          "name": "birthTime",
          "type": "uint256"
        },
        {
          "internalType": "uint256",
          "name": "mumId",
          "type": "uint256"
        },
        {
          "internalType": "uint256",
          "name": "dadId",
          "type": "uint256"
        },
        {
          "internalType": "uint256",
          "name": "generation",
          "type": "uint256"
        },
        {
          "internalType": "uint256",
          "name": "genes",
          "type": "uint256"
        },
        {
          "internalType": "address",
          "name": "owner",
          "type": "address"
        }
      ],
      "stateMutability": "view",
      "type": "function",
      "constant": true
    },
    {
      "inputs": [
        {
          "internalType": "uint256",
          "name": "_tokenId",
          "type": "uint256"
        }
      ],
      "name": "getKittyGenes",
      "outputs": [
        {
          "internalType": "uint256",
          "name": "kittyGenes",
          "type": "uint256"
        }
      ],
      "stateMutability": "view",
      "type": "function",
      "constant": true
    },
    {
      "inputs": [
        {
          "internalType": "uint256",
          "name": "_tokenId",
          "type": "uint256"
        }
      ],
      "name": "getKittyGeneration",
      "outputs": [
        {
          "internalType": "uint256",
          "name": "kittyGeneration",
          "type": "uint256"
        }
      ],
      "stateMutability": "view",
      "type": "function",
      "constant": true
    },
    {
      "inputs": [
        {
          "internalType": "uint256",
          "name": "_genes",
          "type": "uint256"
        }
      ],
      "name": "createKittyGen0",
      "outputs": [],
      "stateMutability": "nonpayable",
      "type": "function"
    },
    {
      "inputs": [
        {
          "internalType": "address",
          "name": "owner",
          "type": "address"
        }
      ],
      "name": "balanceOf",
      "outputs": [
        {
          "internalType": "uint256",
          "name": "balance",
          "type": "uint256"
        }
      ],
      "stateMutability": "view",
      "type": "function",
      "constant": true
    },
    {
      "inputs": [],
      "name": "totalSupply",
      "outputs": [
        {
          "internalType": "uint256",
          "name": "total",
          "type": "uint256"
        }
      ],
      "stateMutability": "view",
      "type": "function",
      "constant": true
    },
    {
      "inputs": [
        {
          "internalType": "uint256",
          "name": "_tokenId",
          "type": "uint256"
        }
      ],
      "name": "ownerOf",
      "outputs": [
        {
          "internalType": "address",
          "name": "owner",
          "type": "address"
        }
      ],
      "stateMutability": "view",
      "type": "function",
      "constant": true
    },
    {
      "inputs": [
        {
          "internalType": "address",
          "name": "_to",
          "type": "address"
        },
        {
          "internalType": "uint256",
          "name": "_tokenId",
          "type": "uint256"
        }
      ],
      "name": "transfer",
      "outputs": [],
      "stateMutability": "nonpayable",
      "type": "function"
    },
    {
      "inputs": [
        {
          "internalType": "address",
          "name": "_owner",
          "type": "address"
        }
      ],
      "name": "tokensOfOwner",
      "outputs": [
        {
          "internalType": "uint256[]",
          "name": "ownerTokens",
          "type": "uint256[]"
        }
      ],
      "stateMutability": "view",
      "type": "function",
      "constant": true
    }
  ],
  "bytecode": "0x608060405234801561001057600080fd5b50336000806101000a81548173ffffffffffffffffffffffffffffffffffffffff021916908373ffffffffffffffffffffffffffffffffffffffff1602179055506122ec806100606000396000f3fe608060405234801561001057600080fd5b50600436106101585760003560e01c8063a22cb465116100c3578063d5a776ca1161007c578063d5a776ca146103fd578063d9ecad7b14610419578063e985e9c514610449578063e98b7f4d14610479578063eb5653d7146104ae578063ef5e94aa146104de57610158565b8063a22cb4651461032b578063a9059cbb14610347578063accb444114610363578063b483433014610393578063b88d4fde146103b1578063c57ac5d6146103cd57610158565b80636352211e116101155780636352211e1461021d57806370a082311461024d57806375e79be61461027d5780638462151c146102ad57806387fa9c63146102dd57806395d89b411461030d57610158565b806306fdde031461015d578063081812fc1461017b578063095ea7b3146101ab57806318160ddd146101c757806323b872dd146101e557806342842e0e14610201575b600080fd5b6101656104fc565b60405161017291906118f7565b60405180910390f35b61019560048036038101906101909190611959565b610535565b6040516101a291906119c7565b60405180910390f35b6101c560048036038101906101c09190611a0e565b610583565b005b6101cf61069b565b6040516101dc9190611a5d565b60405180910390f35b6101ff60048036038101906101fa9190611a78565b6106a8565b005b61021b60048036038101906102169190611a78565b6106cc565b005b61023760048036038101906102329190611959565b610700565b60405161024491906119c7565b60405180910390f35b61026760048036038101906102629190611acb565b61073d565b6040516102749190611a5d565b60405180910390f35b61029760048036038101906102929190611b50565b610786565b6040516102a49190611b98565b60405180910390f35b6102c760048036038101906102c29190611acb565b610826565b6040516102d49190611c71565b60405180910390f35b6102f760048036038101906102f29190611959565b6109ad565b6040516103049190611a5d565b60405180910390f35b6103156109f3565b60405161032291906118f7565b60405180910390f35b61034560048036038101906103409190611cbf565b610a2c565b005b610361600480360381019061035c9190611a0e565b610ad7565b005b61037d60048036038101906103789190611959565b610b6a565b60405161038a9190611a5d565b60405180910390f35b61039b610b9e565b6040516103a89190611a5d565b60405180910390f35b6103cb60048036038101906103c69190611d64565b610ba3565b005b6103e760048036038101906103e29190611959565b610c0e565b6040516103f491906119c7565b60405180910390f35b61041760048036038101906104129190611959565b610c41565b005b610433600480360381019061042e9190611dec565b610cd3565b6040516104409190611a5d565b60405180910390f35b610463600480360381019061045e9190611e2c565b610dc5565b6040516104709190611b98565b60405180910390f35b610493600480360381019061048e9190611959565b610e59565b6040516104a596959493929190611e6c565b60405180910390f35b6104c860048036038101906104c39190611959565b610f29565b6040516104d591906119c7565b60405180910390f35b6104e6610f5c565b6040516104f39190611a5d565b60405180910390f35b6040518060400160405280600b81526020017f53656b794b69747469657300000000000000000000000000000000000000000081525081565b6000600180549050821061054857600080fd5b6004600083815260200190815260200160002060009054906101000a900473ffffffffffffffffffffffffffffffffffffffff169050919050565b61058d3382610f62565b806105f657506004600082815260200190815260200160002060009054906101000a900473ffffffffffffffffffffffffffffffffffffffff1673ffffffffffffffffffffffffffffffffffffffff163373ffffffffffffffffffffffffffffffffffffffff16145b6105ff57600080fd5b6106098282610fce565b808273ffffffffffffffffffffffffffffffffffffffff166003600084815260200190815260200160002060009054906101000a900473ffffffffffffffffffffffffffffffffffffffff1673ffffffffffffffffffffffffffffffffffffffff167f8c5be1e5ebec7d5bd14f71427d1e84f3dd0314c0f7b2291e5b200ac8c7c3b92560405160405180910390a45050565b6000600180549050905090565b6106b3838383611024565b6106bc57600080fd5b6106c78383836110dd565b505050565b6106d7838383611024565b6106e057600080fd5b6106fb838383604051806020016040528060008152506112a4565b505050565b60006003600083815260200190815260200160002060009054906101000a900473ffffffffffffffffffffffffffffffffffffffff169050919050565b6000600260008373ffffffffffffffffffffffffffffffffffffffff1673ffffffffffffffffffffffffffffffffffffffff168152602001908152602001600020549050919050565b60006380ac58cd60e01b7bffffffffffffffffffffffffffffffffffffffffffffffffffffffff1916827bffffffffffffffffffffffffffffffffffffffffffffffffffffffff1916148061081f57506301ffc9a760e01b7bffffffffffffffffffffffffffffffffffffffffffffffffffffffff1916827bffffffffffffffffffffffffffffffffffffffffffffffffffffffff1916145b9050919050565b606060006108338361073d565b90506000810361088f57600067ffffffffffffffff81111561085857610857611ecd565b5b6040519080825280602002602001820160405280156108865781602001602082028036833780820191505090505b509150506109a8565b60008167ffffffffffffffff8111156108ab576108aa611ecd565b5b6040519080825280602002602001820160405280156108d95781602001602082028036833780820191505090505b50905060006108e661069b565b9050600080600190505b82811161099f578673ffffffffffffffffffffffffffffffffffffffff166003600083815260200190815260200160002060009054906101000a900473ffffffffffffffffffffffffffffffffffffffff1673ffffffffffffffffffffffffffffffffffffffff160361098c578084838151811061097157610970611efc565b5b602002602001018181525050818061098890611f5a565b9250505b808061099790611f5a565b9150506108f0565b83955050505050505b919050565b600080600183815481106109c4576109c3611efc565b5b906000526020600020906003020190508060020160089054906101000a900461ffff1661ffff16915050919050565b6040518060400160405280600281526020017f534b00000000000000000000000000000000000000000000000000000000000081525081565b3373ffffffffffffffffffffffffffffffffffffffff168273ffffffffffffffffffffffffffffffffffffffff1603610a6457600080fd5b610a6e82826112ca565b8173ffffffffffffffffffffffffffffffffffffffff163373ffffffffffffffffffffffffffffffffffffffff167f17307eab39ab6107e8899845ad3d59bd9653f200f220920489ca2b5937696c3183604051610acb9190611b98565b60405180910390a35050565b600073ffffffffffffffffffffffffffffffffffffffff168273ffffffffffffffffffffffffffffffffffffffff1603610b1057600080fd5b3073ffffffffffffffffffffffffffffffffffffffff168273ffffffffffffffffffffffffffffffffffffffff1603610b4857600080fd5b610b523382610f62565b610b5b57600080fd5b610b663383836110dd565b5050565b60008060018381548110610b8157610b80611efc565b5b906000526020600020906003020190508060000154915050919050565b600a81565b610bae858585611024565b610bb757600080fd5b610c0785858585858080601f016020809104026020016040519081016040528093929190818152602001838380828437600081840152601f19601f820116905080830192505050505050506112a4565b5050505050565b60036020528060005260406000206000915054906101000a900473ffffffffffffffffffffffffffffffffffffffff1681565b60008054906101000a900473ffffffffffffffffffffffffffffffffffffffff1673ffffffffffffffffffffffffffffffffffffffff163373ffffffffffffffffffffffffffffffffffffffff1614610c9957600080fd5b600a60065410610ca857600080fd5b60066000815480929190610cbb90611f5a565b9190505550610ccf60008060008433611362565b5050565b6000610cdf3384610f62565b610d1e576040517f08c379a0000000000000000000000000000000000000000000000000000000008152600401610d1590611fee565b60405180910390fd5b610d283383610f62565b610d67576040517f08c379a0000000000000000000000000000000000000000000000000000000008152600401610d5e90611fee565b60405180910390fd5b600080610d7385610e59565b5094509450505050600080610d8786610e59565b50945094505050506000610d9b8483611517565b90506000610da9868561165e565b9050610db8888a838533611362565b5050505050505092915050565b6000600560008473ffffffffffffffffffffffffffffffffffffffff1673ffffffffffffffffffffffffffffffffffffffff16815260200190815260200160002060008373ffffffffffffffffffffffffffffffffffffffff1673ffffffffffffffffffffffffffffffffffffffff16815260200190815260200160002060009054906101000a900460ff16905092915050565b600080600080600080600060018881548110610e7857610e77611efc565b5b90600052602060002090600302019050806001015496508060020160009054906101000a900463ffffffff1663ffffffff1695508060020160049054906101000a900463ffffffff1663ffffffff1694508060020160089054906101000a900461ffff1661ffff169350806000015492506003600089815260200190815260200160002060009054906101000a900473ffffffffffffffffffffffffffffffffffffffff1691505091939550919395565b60046020528060005260406000206000915054906101000a900473ffffffffffffffffffffffffffffffffffffffff1681565b60065481565b60006003600083815260200190815260200160002060009054906101000a900473ffffffffffffffffffffffffffffffffffffffff1673ffffffffffffffffffffffffffffffffffffffff168373ffffffffffffffffffffffffffffffffffffffff1614905092915050565b816004600083815260200190815260200160002060006101000a81548173ffffffffffffffffffffffffffffffffffffffff021916908373ffffffffffffffffffffffffffffffffffffffff1602179055505050565b60006110308483610f62565b61103957600080fd5b600073ffffffffffffffffffffffffffffffffffffffff168373ffffffffffffffffffffffffffffffffffffffff160361107257600080fd5b600180549050821061108357600080fd5b8373ffffffffffffffffffffffffffffffffffffffff163373ffffffffffffffffffffffffffffffffffffffff1614806110c357506110c233836116b4565b5b806110d457506110d38433610dc5565b5b90509392505050565b816003600083815260200190815260200160002060006101000a81548173ffffffffffffffffffffffffffffffffffffffff021916908373ffffffffffffffffffffffffffffffffffffffff160217905550600260008373ffffffffffffffffffffffffffffffffffffffff1673ffffffffffffffffffffffffffffffffffffffff168152602001908152602001600020600081548092919061117f90611f5a565b9190505550600073ffffffffffffffffffffffffffffffffffffffff168373ffffffffffffffffffffffffffffffffffffffff161461124457600260008473ffffffffffffffffffffffffffffffffffffffff1673ffffffffffffffffffffffffffffffffffffffff16815260200190815260200160002060008154809291906112089061200e565b91905055506004600082815260200190815260200160002060006101000a81549073ffffffffffffffffffffffffffffffffffffffff02191690555b808273ffffffffffffffffffffffffffffffffffffffff163373ffffffffffffffffffffffffffffffffffffffff167fddf252ad1be2c89b69c2b068fc378daa952ba7f163c4a11628f55a4df523b3ef60405160405180910390a4505050565b6112af8484846110dd565b6112bb84848484611720565b6112c457600080fd5b50505050565b80600560003373ffffffffffffffffffffffffffffffffffffffff1673ffffffffffffffffffffffffffffffffffffffff16815260200190815260200160002060008473ffffffffffffffffffffffffffffffffffffffff1673ffffffffffffffffffffffffffffffffffffffff16815260200190815260200160002060006101000a81548160ff0219169083151502179055505050565b6000806040518060a001604052808581526020014267ffffffffffffffff1681526020018863ffffffff1681526020018763ffffffff1681526020018661ffff1681525090506001819080600181540180825580915050600190039060005260206000209060030201600090919091909150600082015181600001556020820151816001015560408201518160020160006101000a81548163ffffffff021916908363ffffffff16021790555060608201518160020160046101000a81548163ffffffff021916908363ffffffff16021790555060808201518160020160086101000a81548161ffff021916908361ffff16021790555050506001808054905061146c9190612037565b9150826003600084815260200190815260200160002060006101000a81548173ffffffffffffffffffffffffffffffffffffffff021916908373ffffffffffffffffffffffffffffffffffffffff1602179055506114cc600084846110dd565b7fa2950fd8c03e7518275ee57e05ca76c671969b5445b12b1aeea4b0b30195e5df83838989888a6040516115059695949392919061206b565b60405180910390a15095945050505050565b6000611521611844565b600060ff4261153091906120fb565b9050600080600790506000600192505b608083116115fc576000838560ff1616146115865760648761156291906120fb565b60ff1685836008811061157857611577611efc565b5b6020020181815250506115b3565b60648861159391906120fb565b60ff168583600881106115a9576115a8611efc565b5b6020020181815250505b6064876115c0919061212c565b96506064886115cf919061212c565b975060008203156115fc5781806115e59061200e565b9250506002836115f5919061215d565b9250611540565b600092505b6007831161165057606481611616919061215d565b905084836008811061162b5761162a611efc565b5b60200201518161163b919061219f565b9050828061164890611f5a565b935050611601565b809550505050505092915050565b6000808284111561167d57600184611676919061219f565b90506116aa565b8383111561169957600183611692919061219f565b90506116a9565b6001846116a6919061219f565b90505b5b8091505092915050565b60006004600083815260200190815260200160002060009054906101000a900473ffffffffffffffffffffffffffffffffffffffff1673ffffffffffffffffffffffffffffffffffffffff168373ffffffffffffffffffffffffffffffffffffffff1614905092915050565b600061172b8461182b565b6117385760019050611823565b60008473ffffffffffffffffffffffffffffffffffffffff1663150b7a02338887876040518563ffffffff1660e01b81526004016117799493929190612228565b6020604051808303816000875af1158015611798573d6000803e3d6000fd5b505050506040513d601f19601f820116820180604052508101906117bc9190612289565b90507f150b7a023d4804d13e8c85fb27262cb750cf6ba9f9dd3bb30d90f482ceeb4b1f7bffffffffffffffffffffffffffffffffffffffffffffffffffffffff1916817bffffffffffffffffffffffffffffffffffffffffffffffffffffffff1916149150505b949350505050565b600080823b905060008163ffffffff1611915050919050565b604051806101000160405280600890602082028036833780820191505090505090565b600081519050919050565b600082825260208201905092915050565b60005b838110156118a1578082015181840152602081019050611886565b60008484015250505050565b6000601f19601f8301169050919050565b60006118c982611867565b6118d38185611872565b93506118e3818560208601611883565b6118ec816118ad565b840191505092915050565b6000602082019050818103600083015261191181846118be565b905092915050565b600080fd5b600080fd5b6000819050919050565b61193681611923565b811461194157600080fd5b50565b6000813590506119538161192d565b92915050565b60006020828403121561196f5761196e611919565b5b600061197d84828501611944565b91505092915050565b600073ffffffffffffffffffffffffffffffffffffffff82169050919050565b60006119b182611986565b9050919050565b6119c1816119a6565b82525050565b60006020820190506119dc60008301846119b8565b92915050565b6119eb816119a6565b81146119f657600080fd5b50565b600081359050611a08816119e2565b92915050565b60008060408385031215611a2557611a24611919565b5b6000611a33858286016119f9565b9250506020611a4485828601611944565b9150509250929050565b611a5781611923565b82525050565b6000602082019050611a726000830184611a4e565b92915050565b600080600060608486031215611a9157611a90611919565b5b6000611a9f868287016119f9565b9350506020611ab0868287016119f9565b9250506040611ac186828701611944565b9150509250925092565b600060208284031215611ae157611ae0611919565b5b6000611aef848285016119f9565b91505092915050565b60007fffffffff0000000000000000000000000000000000000000000000000000000082169050919050565b611b2d81611af8565b8114611b3857600080fd5b50565b600081359050611b4a81611b24565b92915050565b600060208284031215611b6657611b65611919565b5b6000611b7484828501611b3b565b91505092915050565b60008115159050919050565b611b9281611b7d565b82525050565b6000602082019050611bad6000830184611b89565b92915050565b600081519050919050565b600082825260208201905092915050565b6000819050602082019050919050565b611be881611923565b82525050565b6000611bfa8383611bdf565b60208301905092915050565b6000602082019050919050565b6000611c1e82611bb3565b611c288185611bbe565b9350611c3383611bcf565b8060005b83811015611c64578151611c4b8882611bee565b9750611c5683611c06565b925050600181019050611c37565b5085935050505092915050565b60006020820190508181036000830152611c8b8184611c13565b905092915050565b611c9c81611b7d565b8114611ca757600080fd5b50565b600081359050611cb981611c93565b92915050565b60008060408385031215611cd657611cd5611919565b5b6000611ce4858286016119f9565b9250506020611cf585828601611caa565b9150509250929050565b600080fd5b600080fd5b600080fd5b60008083601f840112611d2457611d23611cff565b5b8235905067ffffffffffffffff811115611d4157611d40611d04565b5b602083019150836001820283011115611d5d57611d5c611d09565b5b9250929050565b600080600080600060808688031215611d8057611d7f611919565b5b6000611d8e888289016119f9565b9550506020611d9f888289016119f9565b9450506040611db088828901611944565b935050606086013567ffffffffffffffff811115611dd157611dd061191e565b5b611ddd88828901611d0e565b92509250509295509295909350565b60008060408385031215611e0357611e02611919565b5b6000611e1185828601611944565b9250506020611e2285828601611944565b9150509250929050565b60008060408385031215611e4357611e42611919565b5b6000611e51858286016119f9565b9250506020611e62858286016119f9565b9150509250929050565b600060c082019050611e816000830189611a4e565b611e8e6020830188611a4e565b611e9b6040830187611a4e565b611ea86060830186611a4e565b611eb56080830185611a4e565b611ec260a08301846119b8565b979650505050505050565b7f4e487b7100000000000000000000000000000000000000000000000000000000600052604160045260246000fd5b7f4e487b7100000000000000000000000000000000000000000000000000000000600052603260045260246000fd5b7f4e487b7100000000000000000000000000000000000000000000000000000000600052601160045260246000fd5b6000611f6582611923565b91507fffffffffffffffffffffffffffffffffffffffffffffffffffffffffffffffff8203611f9757611f96611f2b565b5b600182019050919050565b7f596f7520646f6e2774206f776e2074686520746f6b656e000000000000000000600082015250565b6000611fd8601783611872565b9150611fe382611fa2565b602082019050919050565b6000602082019050818103600083015261200781611fcb565b9050919050565b600061201982611923565b91506000820361202c5761202b611f2b565b5b600182039050919050565b600061204282611923565b915061204d83611923565b925082820390508181111561206557612064611f2b565b5b92915050565b600060c08201905061208060008301896119b8565b61208d6020830188611a4e565b61209a6040830187611a4e565b6120a76060830186611a4e565b6120b46080830185611a4e565b6120c160a0830184611a4e565b979650505050505050565b7f4e487b7100000000000000000000000000000000000000000000000000000000600052601260045260246000fd5b600061210682611923565b915061211183611923565b925082612121576121206120cc565b5b828206905092915050565b600061213782611923565b915061214283611923565b925082612152576121516120cc565b5b828204905092915050565b600061216882611923565b915061217383611923565b925082820261218181611923565b9150828204841483151761219857612197611f2b565b5b5092915050565b60006121aa82611923565b91506121b583611923565b92508282019050808211156121cd576121cc611f2b565b5b92915050565b600081519050919050565b600082825260208201905092915050565b60006121fa826121d3565b61220481856121de565b9350612214818560208601611883565b61221d816118ad565b840191505092915050565b600060808201905061223d60008301876119b8565b61224a60208301866119b8565b6122576040830185611a4e565b818103606083015261226981846121ef565b905095945050505050565b60008151905061228381611b24565b92915050565b60006020828403121561229f5761229e611919565b5b60006122ad84828501612274565b9150509291505056fea264697066735822122064062e2e5b4f46a052003ba8f09b5a8a7b3fb14ace0cb12b2bc8b38705a8a82064736f6c63430008110033",
  "immutableReferences": {},
  "source": "// SPDX-License-Identifier: MIT\r\npragma solidity ^0.8.17;\r\n\r\nimport \"./IERC721.sol\";\r\nimport \"./IERC721Receiver.sol\";\r\nimport \"./Ownable.sol\";\r\n\r\ncontract Kittycontract is IERC721, Ownable {\r\n\r\n    uint256 public constant CREATION_LIMIT_GEN0 = 10;\r\n    string public constant name = \"SekyKitties\";\r\n    string public constant symbol = \"SK\";\r\n\r\n    bytes4 internal constant ERC721_RECEIVED = bytes4(keccak256(\"onERC721Received(address,address,uint256,bytes)\"));\r\n    bytes4 private constant _INTERFACE_ID_ERC_721 = 0x80ac58cd;\r\n    bytes4 private constant _INTERFACE_ID_ERC_165 = 0x01ffc9a7;\r\n\r\n    event Birth(address owner, uint256 tokenId, uint256 mumId, uint256 dadId, uint256 genes, uint256 generation);\r\n\r\n    struct Kitty {\r\n        uint256 genes;\r\n        uint256 birthTime;\r\n        uint32 mumId;\r\n        uint32 dadId;\r\n        uint16 generation;\r\n    }\r\n\r\n    Kitty[] kitties;\r\n\r\n    mapping(address => uint256) ownershipTokenCount;\r\n    mapping(uint256 => address) public ownerOfToken;\r\n    mapping (uint256 => address) public tokenIdToApproved;\r\n    mapping(address => mapping(address => bool)) private toApprovedAll; //owner address => operator address => bool\r\n\r\n    uint256 public gen0Counter;\r\n\r\n/*     constructor() public {\r\n        _createKitty(0, 0, 0, 0, address(0));\r\n    } */\r\n\r\n    function breed(uint256 _dadId, uint256 _mumId) public returns (uint256 tokenId) {\r\n        require(_owns(msg.sender, _dadId), \"You don't own the token\");\r\n        require(_owns(msg.sender, _mumId), \"You don't own the token\"); \r\n\r\n        (,,,uint256 dadGeneration, uint256 dadGenes,) = getKitty(_dadId); \r\n        (,,,uint256 mumGeneration, uint256 mumGenes,) = getKitty(_mumId); \r\n\r\n        uint256 kittyGenes = _mixGenes(dadGenes, mumGenes);\r\n        uint256 kittyGeneration = _kittyGeneration(dadGeneration, mumGeneration);\r\n\r\n        _createKitty(_mumId, _dadId, kittyGeneration, kittyGenes, msg.sender);  \r\n        return tokenId;\r\n    }\r\n\r\n    function _mixGenes (uint256 _dadGenes, uint256 _mumGenes) view internal returns (uint256) {\r\n         // Takes first half of dad genes and second half of mum genes and connects it to create new kitty genes.\r\n/*         uint256 firstHalf = _dadGenes / 100000;\r\n        uint256 secondHalf = _mumGenes % 100000;\r\n        uint256 kittyGenes = firstHalf * 100000 + secondHalf;\r\n        return kittyGenes; */\r\n    \r\n        uint256[8] memory genesArray;\r\n        uint8 random = uint8(block.timestamp % 255); //binary number between 00000000-11111111\r\n        uint256 i;\r\n        uint256 index = 7;\r\n        uint256 kittyGenes = 0;\r\n\r\n        for (i = 1; i <= 128; i = i * 2) {\r\n            if(random & i != 0) {\r\n                genesArray[index] = uint8(_mumGenes % 100);\r\n            }\r\n            else {\r\n                genesArray[index] = uint8(_dadGenes % 100);\r\n            }\r\n            _mumGenes /= 100;\r\n            _dadGenes /= 100;\r\n            if (index == 0) {\r\n                break;\r\n            }\r\n            else {\r\n                index--;\r\n            }\r\n        }\r\n/*\r\n        bitwise operator &\r\n        00000001 = 1\r\n        00000010 = 2\r\n        00000100 = 4\r\n        00001000 = 8\r\n        00010000 = 16\r\n        00100000 = 32\r\n        01000000 = 64\r\n        10000000 = 128\r\n        */\r\n\r\n        for (i = 0; i <= 7 ; i++) {\r\n            kittyGenes *= 100;\r\n            kittyGenes += genesArray[i];        \r\n        }\r\n\r\n        return kittyGenes;\r\n    }\r\n\r\n    function _kittyGeneration(uint256 _dadGeneration, uint256 _mumGeneration) pure internal returns (uint256) {\r\n        uint256 kittyGeneration;\r\n        if (_dadGeneration > _mumGeneration) {\r\n            kittyGeneration = _dadGeneration + 1;\r\n        }\r\n        else if (_mumGeneration > _dadGeneration) {\r\n            kittyGeneration = _mumGeneration + 1;\r\n        }\r\n        else {\r\n            kittyGeneration = _dadGeneration + 1;\r\n        }\r\n        return kittyGeneration;\r\n    }\r\n        \r\n    function supportInterface(bytes4 _interfaceId) external pure returns (bool) {\r\n        return (_interfaceId == _INTERFACE_ID_ERC_721 || _interfaceId == _INTERFACE_ID_ERC_165);\r\n    }\r\n\r\n    function approve(address _approved, uint256 _tokenId) external {\r\n        require(_owns(msg.sender, _tokenId) || msg.sender == tokenIdToApproved[_tokenId]);\r\n        _approve(_approved, _tokenId);\r\n        emit Approval(ownerOfToken[_tokenId], _approved, _tokenId);\r\n    }\r\n\r\n    function setApprovalForAll(address _operator, bool _approved) external {\r\n        require(_operator != msg.sender);\r\n        _setApprovalForAll(_operator, _approved);\r\n        emit ApprovalForAll(msg.sender, _operator, _approved);\r\n    }\r\n\r\n    function getApproved(uint256 _tokenId) external view returns (address) {\r\n        require(_tokenId < kitties.length);\r\n        return tokenIdToApproved[_tokenId];\r\n    }\r\n\r\n    function isApprovedForAll(address _owner, address _operator) public view returns (bool) {\r\n        return toApprovedAll[_owner][_operator];\r\n    }\r\n\r\n    function safeTransferFrom(address _from, address _to, uint256 _tokenId, bytes calldata data) external {\r\n        require(_isOwnerOrApproved(_from, _to, _tokenId));\r\n        _safeTransfer(_from, _to, _tokenId, data);\r\n    }\r\n\r\n    function safeTransferFrom(address _from, address _to, uint256 _tokenId) external {\r\n        require(_isOwnerOrApproved(_from, _to, _tokenId));\r\n        _safeTransfer(_from, _to, _tokenId, \"\");\r\n    }\r\n\r\n    function _safeTransfer(address _from, address _to, uint256 _tokenId, bytes memory data) internal {\r\n        _transfer(_from, _to, _tokenId);\r\n        require(_checkERC721Support(_from, _to, _tokenId, data));\r\n    }\r\n\r\n    function _checkERC721Support(address _from, address _to, uint256 _tokenId, bytes memory data) internal returns (bool) {\r\n        if(!_isContract(_to)) {\r\n            return true;\r\n        }\r\n        else {\r\n            //Call onERC721Received in the _to contract\r\n            bytes4 returnData = IERC721Receiver(_to).onERC721Received(msg.sender, _from, _tokenId, data);\r\n            //Check return value\r\n            return returnData == ERC721_RECEIVED;\r\n        }\r\n    }\r\n\r\n    function _isContract(address _to) view internal returns (bool) {\r\n        uint32 size;\r\n        assembly{\r\n            size := extcodesize(_to)\r\n        }\r\n        return size > 0;\r\n    }\r\n\r\n    function transferFrom(address _from, address _to, uint256 _tokenId) external {\r\n        require(_isOwnerOrApproved(_from, _to, _tokenId));\r\n        _transfer(_from, _to, _tokenId);\r\n    }\r\n\r\n    function getKitty(uint256 _tokenId) public view returns (\r\n        uint256 birthTime,\r\n        uint256 mumId,\r\n        uint256 dadId,\r\n        uint256 generation,\r\n        uint256 genes,\r\n        address owner\r\n    ) {\r\n        Kitty storage kitty = kitties[_tokenId]; // We create only a pointer, because storage is already created. By creating memory we would duplicate the storage.\r\n\r\n        birthTime = uint256(kitty.birthTime); // It's better to display uint256 on frontend.\r\n        mumId = uint256(kitty.mumId);\r\n        dadId = uint256(kitty.dadId);\r\n        generation = uint256(kitty.generation);\r\n        genes = kitty.genes;\r\n        owner = ownerOfToken[_tokenId];\r\n    }\r\n\r\n    function getKittyGenes(uint256 _tokenId) public view returns (uint256 kittyGenes) {\r\n        Kitty storage kitty = kitties[_tokenId]; // We create only a pointer, because storage is already created. By creating memory we would duplicate the storage.\r\n\r\n        kittyGenes = kitty.genes;\r\n    }\r\n\r\n        function getKittyGeneration(uint256 _tokenId) public view returns (uint256 kittyGeneration) {\r\n        Kitty storage kitty = kitties[_tokenId]; // We create only a pointer, because storage is already created. By creating memory we would duplicate the storage.\r\n\r\n        kittyGeneration = uint256(kitty.generation);\r\n    }\r\n\r\n\r\n    function createKittyGen0(uint256 _genes) public onlyOwner {\r\n        require(gen0Counter < CREATION_LIMIT_GEN0);\r\n        gen0Counter++;\r\n        _createKitty(0, 0, 0, _genes, msg.sender);\r\n    }\r\n\r\n    function _createKitty(\r\n        uint256 _mumId,\r\n        uint256 _dadId,\r\n        uint256 _generation,\r\n        uint256 _genes,\r\n        address _owner\r\n    ) private returns (uint256 tokenId) {\r\n        Kitty memory _kitty = Kitty({\r\n            genes: _genes,\r\n            birthTime: uint64(block.timestamp),\r\n            mumId: uint32(_mumId),\r\n            dadId: uint32(_dadId),\r\n            generation: uint16(_generation)\r\n        });\r\n\r\n        kitties.push(_kitty);\r\n        tokenId = kitties.length - 1;\r\n        ownerOfToken[tokenId] = _owner;\r\n        _transfer(address(0), _owner, tokenId);\r\n        emit Birth(_owner, tokenId, _mumId, _dadId, _genes, _generation);\r\n        return tokenId;\r\n    }\r\n\r\n    function balanceOf(address owner) public view returns (uint256 balance) {\r\n        return ownershipTokenCount[owner];\r\n    }\r\n\r\n    function totalSupply() public view returns (uint256 total) {\r\n        return kitties.length;\r\n    }\r\n\r\n\r\n    function ownerOf(uint256 _tokenId) external view returns (address owner) {\r\n        return ownerOfToken[_tokenId];\r\n    }\r\n\r\n    function transfer(address _to, uint256 _tokenId) external {\r\n        require(_to != address(0));\r\n        require(_to != address(this));\r\n        require(_owns(msg.sender, _tokenId));\r\n        _transfer(msg.sender, _to, _tokenId);\r\n    }\r\n\r\n    function _transfer(address _from, address _to, uint256 _tokenId) internal {\r\n        ownerOfToken[_tokenId] = _to;\r\n        ownershipTokenCount[_to]++;\r\n        if (_from != address(0)) {\r\n               ownershipTokenCount[_from]--;\r\n               delete tokenIdToApproved[_tokenId];\r\n        }\r\n        emit Transfer(msg.sender, _to, _tokenId);\r\n    }\r\n\r\n    function _owns(address _sender, uint256 _tokenId) internal view returns (bool) {\r\n        return _sender == ownerOfToken[_tokenId];\r\n    }\r\n\r\n    function _approve(address _approved, uint256 _tokenId) internal {\r\n        tokenIdToApproved[_tokenId] = _approved;\r\n    }\r\n\r\n    function _setApprovalForAll(address _operator, bool _approved) internal {\r\n        toApprovedAll[msg.sender][_operator] = _approved;\r\n    }\r\n\r\n    function _approvedFor(address _approved, uint256 _tokenId) internal view returns (bool) {\r\n        return _approved == tokenIdToApproved[_tokenId];\r\n    }\r\n\r\n    function _isOwnerOrApproved(address _from, address _to, uint256 _tokenId) internal view returns (bool) {\r\n        require(_owns(_from, _tokenId));\r\n        require(_to != address(0));\r\n        require(_tokenId < kitties.length);\r\n\r\n        return (msg.sender == _from || _approvedFor(msg.sender, _tokenId) || isApprovedForAll(_from, msg.sender));  \r\n    }\r\n\r\n    function tokensOfOwner(address _owner) public view returns(uint256[] memory ownerTokens) {\r\n        uint256 tokenCount = balanceOf(_owner);\r\n\r\n        if (tokenCount == 0) {\r\n            return new uint256[](0);\r\n        } else {\r\n            uint256[] memory result = new uint256[](tokenCount);\r\n            uint256 totalCats = totalSupply();\r\n            uint256 resultIndex = 0;\r\n\r\n            uint256 catId;\r\n\r\n            for (catId = 1; catId <= totalCats; catId++) {\r\n                if (ownerOfToken[catId] == _owner) {\r\n                    result[resultIndex] = catId;\r\n                    resultIndex++;\r\n                }\r\n            }\r\n            return result;\r\n        }\r\n    }\r\n}\r\n",
  "sourcePath": "C:\\Tommy\\VSC projects\\Kittyfactory\\contracts\\Kittycontract.sol",
  "compiler": {
    "name": "solc",
    "version": "0.8.17+commit.8df45f5f.Emscripten.clang"
  },
  "schemaVersion": "3.4.11",
  "updatedAt": "2023-01-30T13:36:13.988Z",
  "networkType": "ethereum",
  "devdoc": {
    "kind": "dev",
    "methods": {
      "approve(address,uint256)": {
        "details": "The zero address indicates there is no approved address.  Throws unless `msg.sender` is the current NFT owner, or an authorized  operator of the current owner.",
        "params": {
          "_approved": "The new approved NFT controller",
          "_tokenId": "The NFT to approve"
        }
      },
      "balanceOf(address)": {
        "details": "Returns the number of tokens in ``owner``'s account."
      },
      "getApproved(uint256)": {
        "details": "Throws if `_tokenId` is not a valid NFT.",
        "params": {
          "_tokenId": "The NFT to find the approved address for"
        },
        "returns": {
          "_0": "The approved address for this NFT, or the zero address if there is none"
        }
      },
      "isApprovedForAll(address,address)": {
        "params": {
          "_operator": "The address that acts on behalf of the owner",
          "_owner": "The address that owns the NFTs"
        },
        "returns": {
          "_0": "True if `_operator` is an approved operator for `_owner`, false otherwise"
        }
      },
      "safeTransferFrom(address,address,uint256)": {
        "details": "This works identically to the other function with an extra data parameter,  except this function just sets data to \"\".",
        "params": {
          "_from": "The current owner of the NFT",
          "_to": "The new owner",
          "_tokenId": "The NFT to transfer"
        }
      },
      "safeTransferFrom(address,address,uint256,bytes)": {
        "details": "Throws unless `msg.sender` is the current owner, an authorized  operator, or the approved address for this NFT. Throws if `_from` is  not the current owner. Throws if `_to` is the zero address. Throws if  `_tokenId` is not a valid NFT. When transfer is complete, this function  checks if `_to` is a smart contract (code size > 0). If so, it calls  `onERC721Received` on `_to` and throws if the return value is not  `bytes4(keccak256(\"onERC721Received(address,address,uint256,bytes)\"))`.",
        "params": {
          "_from": "The current owner of the NFT",
          "_to": "The new owner",
          "_tokenId": "The NFT to transfer",
          "data": "Additional data with no specified format, sent in call to `_to`"
        }
      },
      "setApprovalForAll(address,bool)": {
        "details": "Emits the ApprovalForAll event. The contract MUST allow  multiple operators per owner.",
        "params": {
          "_approved": "True if the operator is approved, false to revoke approval",
          "_operator": "Address to add to the set of authorized operators"
        }
      },
      "transferFrom(address,address,uint256)": {
        "details": "Throws unless `msg.sender` is the current owner, an authorized  operator, or the approved address for this NFT. Throws if `_from` is  not the current owner. Throws if `_to` is the zero address. Throws if  `_tokenId` is not a valid NFT.",
        "params": {
          "_from": "The current owner of the NFT",
          "_to": "The new owner",
          "_tokenId": "The NFT to transfer"
        }
      }
    },
    "version": 1
  },
  "userdoc": {
    "kind": "user",
    "methods": {
      "approve(address,uint256)": {
        "notice": "Change or reaffirm the approved address for an NFT"
      },
      "getApproved(uint256)": {
        "notice": "Get the approved address for a single NFT"
      },
      "isApprovedForAll(address,address)": {
        "notice": "Query if an address is an authorized operator for another address"
      },
      "safeTransferFrom(address,address,uint256)": {
        "notice": "Transfers the ownership of an NFT from one address to another address"
      },
      "safeTransferFrom(address,address,uint256,bytes)": {
        "notice": "Transfers the ownership of an NFT from one address to another address"
      },
      "setApprovalForAll(address,bool)": {
        "notice": "Enable or disable approval for a third party (\"operator\") to manage  all of `msg.sender`'s assets"
      },
      "transferFrom(address,address,uint256)": {
        "notice": "Transfer ownership of an NFT -- THE CALLER IS RESPONSIBLE  TO CONFIRM THAT `_to` IS CAPABLE OF RECEIVING NFTS OR ELSE  THEY MAY BE PERMANENTLY LOST"
      }
    },
    "version": 1
  }
}